:100000000C947B000C94BA170C9493170C94A300D7
:100010000C94A3000C94A3000C94A3000C94A300D4
:100020000C94A3000C94A3000C94A3000C94A300C4
:100030000C94A3000C94A3000C94A3000C94A300B4
:100040000C9449170C94A3000C9417170C94F116F8
:100050000C94A3000C94A3000C94A3000C94A30094
:100060000C94E1170C94A3004E414E494E4954594B
:10007000494E46CDCCCC3D0AD7233C17B7D1387773
:10008000CC2B329595E6241FB14F0A000020410089
:1000900000C84200401C4620BCBE4CCA1B0E5AAED3
:1000A000C59D740000000800020100000304070061
:1000B0000000000000000000000000250028002BC8
:1000C0000000000000240027002A000404040404A7
:1000D00004040402020202020203030303030301F5
:1000E00002040810204080010204081020010204CC
:1000F00008102000001911241FBECFEFD8E0DEBF8A
:10010000CDBF26E0A6E9B4E001C01D92A63FB2072C
:10011000E1F714E0A0E0B1E0E0E0F7E402C0059010
:100120000D92A639B107D9F710E0CBE7D0E004C0B3
:100130002197FE010E948121CA37D107C9F70E9489
:10014000A81A0C947E230C94000090E0FC01E1526C
:10015000FF4F249185539F4FFC018491882399F090
:1001600090E0880F991FFC01EF53FF4FA591B491C8
:10017000FC01E954FF4F859194918FB7F894EC916D
:10018000E22BEC938FBF089508950895AF92BF922C
:10019000CF92DF92EF92FF920F931F93CF93DF9353
:1001A0006C017B018B01040F151FEB015E01AE1882
:1001B000BF08C017D10759F06991D601ED91FC91A4
:1001C0000190F081E02DC6010995892B79F7C501D1
:1001D000DF91CF911F910F91FF90EF90DF90CF9023
:1001E000BF90AF900895FC01538D448D252F30E0D2
:1001F000842F90E0821B930B541710F0CF96089534
:1002000001970895FC01918D828D981761F0A28D60
:10021000AE0FBF2FB11D5D968C91928D9F5F9F7326
:10022000928F90E008958FEF9FEF0895FC01918DDC
:10023000828D981731F0828DE80FF11D858D90E049
:1002400008958FEF9FEF0895FC01918D228D892FE6
:1002500090E0805C9F4F821B91098F7399270895CE
:1002600085E695E00E94240121E0892B09F420E035
:10027000822F089580E090E0892B29F00E943001C0
:1002800081110C9400000895FC01A48DA80FB92FD2
:10029000B11DA35ABF4F2C91848D90E001968F73AE
:1002A0009927848FA689B7892C93A089B1898C91CD
:1002B000837080648C93938D848D981306C002881C
:1002C000F389E02D80818F7D80830895EF92FF92E6
:1002D0000F931F93CF93DF93EC0181E0888F9B8D69
:1002E0008C8D98131AC0E889F989808185FF15C023
:1002F0009FB7F894EE89FF896083E889F989808146
:100300008370806480839FBF81E090E0DF91CF9114
:100310001F910F91FF90EF900895F62E0B8D10E036
:100320000F5F1F4F0F731127E02E8C8D8E110CC0A5
:100330000FB607FCFACFE889F989808185FFF5CFF0
:10034000CE010E944401F1CFEB8DEC0FFD2FF11D8A
:10035000E35AFF4FF0829FB7F8940B8FEA89FB892D
:1003600080818062CFCFCF93DF93EC01888D88238B
:10037000B9F0AA89BB89E889F9898C9185FD03C008
:10038000808186FD0DC00FB607FCF7CF8C9185FFED
:10039000F2CF808185FFEDCFCE010E944401E9CFED
:1003A000DF91CF91089590E0FC01ED55FF4F24912E
:1003B000FC01E152FF4F3491FC01E553FF4FE49102
:1003C000EE23C9F0222339F0233001F1A8F42130C3
:1003D00019F1223029F1F0E0EE0FFF1FE954FF4F31
:1003E000A591B4918FB7F894EC91611126C0309526
:1003F0003E233C938FBF08952730A9F02830C9F0E1
:10040000243049F7809180008F7D03C08091800067
:100410008F7780938000DFCF84B58F7784BDDBCF6B
:1004200084B58F7DFBCF8091B0008F778093B00033
:10043000D2CF8091B0008F7DF9CF3E2BDACF1F93C2
:10044000CF93DF93182FEB010E94A500209739F47A
:1004500060E0812FDF91CF911F910C94D301CF3FAA
:10046000D10511F461E0F5CFE12FF0E0ED55FF4F3C
:10047000E491E33031F140F4E130B1F0E230E1F009
:10048000C038D1057CF7E4CFE73029F1E83059F1E5
:10049000E430B1F780918000806280938000D09337
:1004A0008B00C0938A0004C084B5806884BDC7BD3A
:1004B000DF91CF911F91089584B5806284BDC8BD3E
:1004C000F7CF80918000806880938000D09389006E
:1004D000C0938800EDCF8091B00080688093B00019
:1004E000C093B300E5CF8091B00080628093B000EC
:1004F000C093B400DDCF3FB7F89480914C05909144
:100500004D05A0914E05B0914F0526B5A89B05C09D
:100510002F3F19F00196A11DB11D3FBFBA2FA92F82
:10052000982F8827BC01CD01620F711D811D911D7F
:1005300042E0660F771F881F991F4A95D1F70895EB
:10054000089585ED8093BC008091BC0084FDFCCFB4
:1005500010925605089520910005260F3327331F6A
:1005600021323105ECF420915605FC0190E080E049
:10057000243069F082E00895A09100052191AC013A
:1005800040525B4FA40FB52FB11D2C9301968617D7
:1005900098F380910005680F6093000580E008954E
:1005A00081E008950895E0915A0580915905E81772
:1005B00030F4F0E0E054FB4F808190E008958FEF3D
:1005C0009FEF089590915A05809159052FEF3FEFC5
:1005D000981748F4E92FF0E0E054FB4F208130E019
:1005E0009F5F90935A05C901089580915905909194
:1005F0005A05891B990B0895CF92DF92EF92FF92D3
:100600000F931F93CF93DF937C01CB018A0120913D
:10061000BF04222389F0EB016B01C40ED51ECC155B
:10062000DD0569F06991D701ED91FC910190F081B0
:10063000E02DC7010995F3CF642F0E94AB02C801DA
:10064000DF91CF911F910F91FF90EF90DF90CF90AE
:100650000895CF93DF931F92CDB7DEB769832091C2
:10066000BF042223F9F020915705203258F021E0F1
:1006700030E0FC013383228390E080E00F90DF9133
:10068000CF91089580915805E82FF0E0E156FB4F97
:10069000998190838F5F809358058093570581E0FF
:1006A00090E0ECCF61E0CE0101960E94AB02F7CF63
:1006B00090E080E0089590E080E0089581E090E08F
:1006C0000895CF93DF93EC016E857F8571956195D9
:1006D0007109072E000C880B990B0E94231E1F86A0
:1006E0001E86188A198A1A8A1B8A2C813D814E819E
:1006F0005F810E9401202BED3FE049EC50E40E9415
:10070000821EDF91CF9108959C010597029740F4D6
:1007100094B59C7F916094BD95B5907F916095BD97
:10072000C9010997029738F480918100887F816020
:100730008093810008952330310539F48091B10010
:10074000887F81608093B10008952B303105B1F32B
:1007500008952F923F924F925F926F927F928F9265
:100760009F92AF92BF92CF92DF92EF92FF920F9340
:100770001F93CF93DF93CDB7DEB729970FB6F894C9
:10078000DEBF0FBECDBF998788875A01962E872E70
:10079000322E232EC982DD82EE82FF82DC011A9680
:1007A0004D905D906D907C901D9773016201F7FAFA
:1007B000F094F7F8F0949A01462F572FC701B6012D
:1007C0000E94552118160CF4E2C09501492D582DB0
:1007D000C301B2010E941C1E87FF03C05201962C68
:1007E000872C9801432D522DC701B6010E94552137
:1007F00018160CF4D0C09801432D522DC301B2013C
:100800000E941C1E87FF03C08201362C272C2981E1
:100810003D814E815F81C701B6010E9455211816A6
:1008200084F029813D814E815F81C301B2010E9424
:100830001C1E7301620187FD04C0C980DD80EE804B
:10084000FF80A885B98516968D919D910D90BC91DC
:10085000A02D89839A83AB83BC839C01AD01B50134
:10086000892D982D0E9401202B013C0120E030E0D1
:10087000A9010E941C1E87FD92C020E030E040E8E4
:100880005FE3C301B2010E94552118160CF48BC01E
:1008900029813A814B815C81B801832D922D0E9480
:1008A00001204B015C0120E030E0A9010E941C1EE8
:1008B00087FD80C020E030E040E85FE3C501B4017F
:1008C0000E94552118160CF479C029813A814B8178
:1008D0005C81C701B6010E9401206B017C0120E010
:1008E00030E0A9010E941C1E87FD6FC020E030E0AF
:1008F00040E85FE3C701B6010E94552118160CF4C9
:1009000068C0E885F9851289008920E030E04FE76A
:1009100053E4C301B2010E94821E0E947320A88585
:10092000B9851E968C910E941F0220E030E04FE7AF
:1009300053E4C501B4010E94821E0E947320802FDF
:100940000E941F0220E030E04FE753E4C701B601E8
:100950000E94821E0E947320812F29960FB6F89460
:10096000DEBF0FBECDBFDF91CF911F910F91FF90E2
:10097000EF90DF90CF90BF90AF909F908F907F903F
:100980006F905F904F903F902F900C941F025601F4
:100990009E2C8F2C26CF86013E2C2F2C38CF412C1D
:1009A000512C320175CF412C512C20E8622E2FE3BF
:1009B000722E6ECF812C912C540187CF812C912CDB
:1009C00090E8A92E9FE3B92E80CFC12CD12C7601BF
:1009D00098CFC12CD12C80E8E82E8FE3F82E91CF50
:1009E0008F929F92AF92BF92CF92DF92EF92FF923F
:1009F000CF93DF93EC018E850E94A50088890E9429
:100A0000A5008A890E94A500EC88FD88B701FF0C2B
:100A1000880B990B0E94231E20E034EE40E456EC34
:100A20000E941C1E882319F08E2D0E94A5008A8426
:100A30009B84AC84BD84CE80DF80E884F98420E090
:100A400034EE40E456ECC501B4010E941C1E88231C
:100A500041F0A7019601C501B4010E945521181665
:100A600024F4CA86DB86EC86FD86EA88FB88C88883
:100A7000D9888E859F850E948403C6010E948403C5
:100A8000C7010E94840390E080E0DF91CF91FF9046
:100A9000EF90DF90CF90BF90AF909F908F90089590
:100AA000CF92DF92EF92FF920F931F93CF93DF933A
:100AB000EC01E881F9810680F781E02DC12CD12C71
:100AC000760197018601B701A60109950C88DD8999
:100AD000C02DBE01DD0F880B990B0E94231E20E064
:100AE00034EE40E456EC0E941C1E882361F060E066
:100AF0008C2FDF91CF911F910F91FF90EF90DF909E
:100B0000CF900C94D301DF91CF911F910F91FF9063
:100B1000EF90DF90CF900895CF92DF92EF92FF9207
:100B20000F931F93CF93DF93EC010C891D89B801BC
:100B3000110F880B990B0E94231E20E034EE40E435
:100B400056EC0E941C1E882321F061E0802F0E9439
:100B5000D301E881F9810680F781E02DC12CD12CE9
:100B6000760197018601B701A601CE010995DF91B3
:100B7000CF911F910F91FF90EF90DF90CF9008954C
:100B8000FC01E457FF4FA081B181109731F4FC01C3
:100B900066817781808591850895ED91FC9111970B
:100BA0000190F081E02DCD01099485B587708130E9
:100BB00051F40E947B0225E096958795779567957D
:100BC0002A95D1F708950C947B024F925F926F9211
:100BD0007F928F929F92AF92BF92CF92DF92EF92CD
:100BE000FF92CF93DF93EC010E94D5054B015C018E
:100BF0008C8D9D8DAE8DBF8DA5019401281B390B69
:100C00004A0B5B0BCA01B9010E94211E2DEB37E391
:100C100046E855E30E94821E6B017C0120E030E033
:100C2000A9010E941C1E1816A4F520E030E040E047
:100C30005FE3C701B6010E945521181654F1E881FF
:100C4000F9810190F081E02DCE0109952B013C0145
:100C5000288D398D4A8D5B8D0E94941FA7019601C6
:100C60000E940120488E598E6A8E7B8E8C8E9D8EBE
:100C7000AE8EBF8EDF91CF91FF90EF90DF90CF903F
:100C8000BF90AF909F908F907F906F905F904F90AC
:100C900008958FE6C82E82E1D82E83E8E82E8AE3F5
:100CA000F82ECDCF4F925F926F927F928F929F924C
:100CB000AF92BF92CF92DF92EF92FF92CF93DF93EA
:100CC00000D000D000D0CDB7DEB7FC01E457FF4F15
:100CD000A081B181109709F490C09E838D83ED911E
:100CE000FC9111970280F381E02DCD010995698374
:100CF0007A838B839C830E94D5054B015C012D81F7
:100D00003E8120583F4F3E832D83F9018481958198
:100D1000A681B781A5019401281B390B4A0B5B0BF7
:100D2000CA01B9010E94211E2DEB37E346E855E3C5
:100D30000E94821E6B017C0120E030E040E05FE316
:100D40000E945521181644F48FE6C82E82E1D82E51
:100D500083E8E82E8AE3F82EED81FE814080518001
:100D600062807380A7019601C301B2010E94951FA2
:100D70009B01AC01C301B2010E9401206B017C0107
:100D8000ED81FE8120853185428553850E94821E3A
:100D90002B013C01A701960160E070E080E89FE331
:100DA0000E94941F29813A814B815C810E94821E9E
:100DB0009B01AC01C301B2010E94951FED81FE8130
:100DC000608771878287938784829582A682B782A3
:100DD00026960FB6F894DEBF0FBECDBFDF91CF9140
:100DE000FF90EF90DF90CF90BF90AF909F908F904B
:100DF0007F906F905F904F90089560E070E0CB011E
:100E0000E7CF8F929F92AF92BF92CF92DF92EF92F5
:100E1000FF924B015C010E94D5056B017C01A8EE9D
:100E2000B3E0A50194010E94431FC60ED71EE81E21
:100E3000F91E0E94D5056C157D058E059F05C8F32A
:100E4000FF90EF90DF90CF90BF90AF909F908F90EA
:100E500008952F923F924F925F926F927F928F925E
:100E60009F92AF92BF92CF92DF92EF92FF920F9339
:100E70001F93CF93DF93CDB7DEB765970FB6F89486
:100E8000DEBF0FBECDBF9D8B8C8B4C875D876E8781
:100E90007F870E94D5050E94211E688B798B8A8BE3
:100EA0009B8BAC89BD895C962D913D914D915C9158
:100EB0005F970E94941F2DEB37E346E855E30E94AD
:100EC000821E2B013C0120E030E0A9010E941C1E83
:100ED00018160CF01FC120E030E040E05FE3C301D2
:100EE000B2010E94552118160CF414C1EC89FD8939
:100EF00020813181428153816C857D858E859F85DE
:100F00000E94821E6D837E838F839887AC89BD8902
:100F10005896CD90DD90ED90FC905B9714962D91B6
:100F20003D914D915C911797C301B2010E94821EC1
:100F300020E030E040E05FE30E94821E4B015C0154
:100F40002C853D854E855F85C701B6010E94951FA2
:100F50009B01AC01C501B4010E94821EEC89FD8990
:100F600024893589468957890E94951F6A877B871E
:100F70001C01AC89BD8950968D909D90AD90BC9020
:100F80005397D501C401B05889839A83AB83BC833E
:100F90009B01A101BC01CD010E94552118160CF442
:100FA000C2C02A853B85A101C501B4010E941C1E57
:100FB00087FF03C08A869B861501A70196016C8571
:100FC0007D858E859F850E94941FEC89FD892085F3
:100FD0003185428553850E94821EA30192010E94A1
:100FE00001206B017C012D813E814F8158856A85EE
:100FF0007B85C1010E94951F9B01AC01C701B60111
:101000000E94951F8B018D8399879B01AC0169819B
:101010007A818B819C810E94552118160CF48AC01C
:1010200098014D815985C501B4010E941C1E87FF9E
:1010300003C08401AD82B986AC89BD8990968D903C
:101040009D90AD90BC909397A5019401B8018D81BE
:1010500099850E94941FA30192010E940120698337
:101060007A838B839C83EC89FD89C484D584E68450
:10107000F7849B01AC01C701B6010E941C1E87FFCB
:1010800060C0A3019201C701B6010E94821EA501A2
:1010900094010E94951F8B018D8399878A859B857A
:1010A000D101EC89FD89848B958BA68BB78BC80108
:1010B000AD81B98580A391A3A2A3B3A38C859D859F
:1010C000AE85BF85808F918FA28FB38F88899989D4
:1010D000AA89BB89848F958FA68FB78FB8018D8120
:1010E000998565960FB6F894DEBF0FBECDBFDF9130
:1010F000CF911F910F91FF90EF90DF90CF90BF9015
:10110000AF909F908F907F906F905F904F903F90A7
:101110002F9008958FE6482E82E1582E83E8682E9E
:101120008AE3782EE3CE99819A87AA81AB872B80B8
:101130003C8043CF09811A81FB81FD838C818987A3
:101140007BCF29813A814B815C81C701B6019058E0
:101150000E94552118160CF0A1CFA3019201C701DE
:10116000B6010E94821E9B01AC01C501B4010E9420
:10117000941F91CF8F929F92AF92BF92CF92DF92A6
:10118000EF92FF924B015C0126EE3FE54DEF52E4FA
:101190000E94821E6B017C012BED3FE049EC5FE376
:1011A000C501B4010E941C1E87FF34C020E030E05E
:1011B000A901C701B6010E94552120E030E040E0BE
:1011C0005FE387FD22C0C701B6010E94951F0E9400
:1011D0007320660F771F6A587E4FFB016081718113
:1011E000072E000C880B990B0E94231E27E137EB7A
:1011F00041ED58E30E94821EFF90EF90DF90CF9068
:10120000BF90AF909F908F900895C701B6010E9444
:10121000941FDDCF2BED3FE049E450E4C501B4015C
:101220000E941C1E87FF2BC020E030E0A901C701EF
:10123000B6010E94552120E030E040E05FE387FDE9
:1012400019C0C701B6010E94951F0E9473205EE875
:10125000C52EDD24D394E12CF12CA7019601261B89
:10126000370B480B590BC901880F991F8A589E4F9D
:10127000FC01B4CFC701B6010E94941FE6CF24EE53
:101280003BEC46E950E4C501B4010E941C1E20E07D
:1012900030E0A90187FF2BC0C701B6010E9455218C
:1012A00020E030E040E05FE387FD1CC0C701B601ED
:1012B0000E94951F0E9473206E5871408109910908
:1012C000660F771F6A587E4FFB0160817181072E80
:1012D000000C880B990B0E94231E27E137EB41ED90
:1012E00058EB88CFC701B6010E94941FE3CFC70116
:1012F000B6010E94552120E030E040E05FE387FD29
:1013000019C0C701B6010E94951F0E9473202CE1ED
:10131000C22E23E0D22EE12CF12CA7019601261B30
:10132000370B480B590BC901880F991F8A589E4FDC
:10133000FC01CBCFC701B6010E94941FE6CFCF922C
:10134000DF92EF92FF920F931F93CF93DF93EC0105
:10135000C057DF4F88819981DC01ED91FC910280BB
:10136000F381E02D099588819981DC01ED91FC9153
:101370000680F781E02DC12CD12C760197018601E2
:10138000B701A6010995DF91CF911F910F91FF90B1
:10139000EF90DF90CF900895CF92DF92EF92FF927F
:1013A0000F931F93CF93DF93EC01C057DF4F8881DA
:1013B0009981DC01ED91FC910680F781E02DC12C33
:1013C000D12C760197018601B701A6010995888184
:1013D0009981DC01ED91FC910480F581E02DDF9194
:1013E000CF911F910F91FF90EF90DF90CF900994D4
:1013F000CF93DF93EC0180915F059091600500979A
:1014000059F020916105309162052C173D0720F0BD
:1014100081E0DF91CF910895BE016F5F7F4F0E9401
:10142000AC22009789F09093600580935F05D0937C
:101430006205C09361052091630530916405232BFB
:1014400039F7FC011082E4CF80E0E3CF0E946923EA
:10145000FB0101900020E9F73197AF01461B570BC4
:10146000DC01ED91FC910280F381E02D09948F92D3
:101470009F92AF92BF920F931F93CF93DF93CDB7FD
:10148000DEB7A1970FB6F894DEBF0FBECDBF19A28D
:10149000423008F44AE08E010F5D1F4F842E912CDC
:1014A000B12CA12CA50194010E945F21E62FB90166
:1014B000CA01EA3004F5E05DD801EE938D01232BDB
:1014C000242B252B79F790E080E0109729F0BD01BF
:1014D00085E695E00E94280AA1960FB6F894DEBF33
:1014E0000FBECDBFDF91CF911F910F91BF90AF90F5
:1014F0009F908F900895E95CDFCF0F931F93CF9358
:10150000DF93EC010E94280A8C0166E673E0CE01AD
:101510000E94280A800F911FDF91CF911F910F9198
:101520000895CF92DF92EF92FF920F931F93CF9384
:10153000DF93EC018C0102571F4FF80180819181EC
:10154000009721F069E673E00E947D0AFE01E057F2
:10155000FF4F0190F081E02DC284D384E484F584B0
:10156000A701960168A579A58AA59BA50E9455218A
:10157000181624F4C8A6D9A6EAA6FBA6C8A4D9A41E
:10158000EAA4FBA4A70196016E8D7F8D88A199A185
:101590000E945521181624F4CE8EDF8EE8A2F9A2FF
:1015A000FE01E85BFF4FC082D182E282F3828CA50C
:1015B0009DA5AEA5BFA5B49680839183A283B38376
:1015C00064EF71E080E090E00E940107F801808103
:1015D0009181009721F064E873E00E947D0AE88120
:1015E000F9810480F581E02DCE01099564EF71E069
:1015F00080E090E0DF91CF911F910F91FF90EF90ED
:10160000DF90CF900C9401071F93CF93DF93EC01F1
:1016100088A199A12D8531E03093BF0420939E04C9
:101620001092580510925705DC01ED91FC91019044
:10163000F081E02D099520915705213208F041C035
:10164000809156058111FCCF80919E0492E0909389
:101650005605109255059FEF90932305109245056E
:1016600020934405AFE9B4E0E4E2F5E090E029130B
:1016700094C01092460590914605880F892B80935F
:10168000460580915405813009F08BC010925405B5
:10169000809146058093BB008091BC0083FDF8CF0C
:1016A00085EC8093BC00809156058230E1F38091F7
:1016B00023058F3F31F080912305803211F0809116
:1016C000230510925805109257051092BF048D857E
:1016D000909156059111FCCF91E09093560590930F
:1016E00055052FEF2093230510924505909344054F
:1016F0009093460590914605880F892B8093460567
:1017000080915405813009F04EC0109254058091AB
:1017100046058093BB008091BC0083FDF8CF85EC2B
:101720008093BC00809156058130E1F3809145059E
:1017300092E0823010F490914505A4E2B5E0E0EC2F
:10174000F4E080E0891331C010925A058093590566
:1017500088A199A1DC01ED91FC910284F385E02D33
:101760000995182F88A199A1DC01ED91FC910284C3
:10177000F385E02D09959A8589232B85212330E077
:10178000088402C0220F331F0A94E2F7820F932FBE
:10179000911DDF91CF911F9108953D9131939F5FEE
:1017A00066CF85EE7ECF85EEBBCF2D9121938F5FE7
:1017B000C9CF4F925F926F927F928F929F92AF921A
:1017C000BF92CF92DF92EF92FF92CF93DF9300D040
:1017D00000D000D0CDB7DEB79E838D83DC011C9690
:1017E0006C910E94040BBC01990F880B990B0E940D
:1017F000231E4B015C01ED81FE81248935894689D8
:1018000057890E94941F6B017C0120E030E0A90100
:101810000E94552126013701181624F077FA70949A
:1018200077F87094AD81BE8114968D919D910D9045
:10183000BC91A02D89839A83AB83BC832DEC3CECB7
:101840004CE45FE3BC01CD010E94821EA301920122
:101850000E941C1E87FF21C020E030E0A901C701C3
:10186000B6010E9455212BED3FE049EC50EC1816D3
:1018700024F02BED3FE049EC50E4ED81FE816089DE
:101880007189828993890E94951FAD81BE8150968E
:101890006D937D938D939C935397ED81FE81848A04
:1018A000958AA68AB78A66857785072E000C880BED
:1018B000990B0E94231E9B01AC01C501B4010E943B
:1018C000941F29813A814B815C810E9401202BED7C
:1018D0003FE049EC50E40E94821EAD81BE815096EB
:1018E0002D913D914D915C9153970E94951F6B01F5
:1018F0007C01ED81FE8162817381072E000C880BD3
:10190000990B0E94231E9B01AC01C701B6010E94E6
:10191000821E26960FB6F894DEBF0FBECDBFDF91B4
:10192000CF91FF90EF90DF90CF90BF90AF909F90BE
:101930008F907F906F905F904F900895CF92DF923D
:10194000EF92FF920F931F93CF93DF93EC01E88107
:10195000F9810190F081E02D09956B017C010A81EC
:101960001B816C85CE010E94040B9C01029FC0016B
:10197000039F900D129F900D11249F878E87188AC8
:10198000198A1A8A1B8AC701B6019058DF91CF9134
:101990001F910F91FF90EF90DF90CF900895CF921D
:1019A000DF92EF92FF922BED3FE049EC50E40E9472
:1019B000CB206B017C0120E030E0A9010E94552181
:1019C00087FF0AC02BED3FE049EC50E4C701B601A8
:1019D0000E94951F6B017C01C701B601FF90EF903B
:1019E000DF90CF9008952F923F924F925F926F9227
:1019F0007F928F929F92AF92BF92CF92DF92EF929F
:101A0000FF920F931F93CF93DF93CDB7DEB760970D
:101A10000FB6F894DEBF0FBECDBF1C012A013B01FB
:101A20000D831E832F833887FC01E057FF4F2081F1
:101A300031813A872987DC01D6968D919C9181303E
:101A4000910509F4E2C108F40FC182309105B9F1A2
:101A5000039709F4E1C0F101E656FF4FC080D18041
:101A6000E280F380349700811181228133813497A1
:101A70004081518162817381A985BA85ED91FC9184
:101A800011970680F781E02DCD01099560960FB67C
:101A9000F894DEBF0FBECDBFDF91CF911F910F91A4
:101AA000FF90EF90DF90CF90BF90AF909F908F907E
:101AB0007F906F905F904F903F902F90089522E914
:101AC0003AE046E05FE3C701B6010E94951FF101CD
:101AD00020A931A942A953A90E94951F0E94CF0CA9
:101AE0002BED3FE049EC50E40E94012020E030E083
:101AF00040EC50E40E94821E0E94732026E0269F44
:101B0000A001279F500D11244E5A5E4F5E834D83D6
:101B1000DA0112966D917C91072E000C880B990BBF
:101B20000E94231EA30192010E94821EA301920122
:101B30000E94951F69837A838B839C83ED81FE814C
:101B400064817581072E000C880B990B0E94231E5F
:101B5000A30192010E94821EA30192010E94951F7F
:101B60004B015C0120E030E040E05FE3A985BA85ED
:101B70001A966D917D918D919C911D970E94821E68
:101B8000A30192010E94941F6B017C0181010E56FA
:101B90001F4FED81FE8160817181072E000C880B43
:101BA000990B0E94231EA30192010E94821EA30191
:101BB00092010E94951FA70196010E94951FD801CE
:101BC0006D937D938D939C931397F101EA56FF4F8C
:101BD000FE83ED83A701960169817A818B819C81C7
:101BE0000E94951FAD81BE816D937D938D939C93D3
:101BF0001397F101E656FF4FFA83E983A701960197
:101C0000C501B4010E94951FA981BA816D937D938E
:101C10008D939C9313971FCF22E93AE046E05FE350
:101C2000C701B6010E94951FF10120A931A942A95F
:101C300053A90E94951F0E94CF0C2BED3FE049EC69
:101C400050E40E94012020E030E040E451E40E9492
:101C5000821E0E94732026E0269FA001279F500D20
:101C60001124465F5E4F52CFF10120A931A942A94C
:101C700053A9C701B6010E94951F0E94CF0C6B01AA
:101C80007C012BED3FE049EC5FE30E94951F4B0187
:101C90005C012BED3FE049EC50E40E945521181601
:101CA00054F42BED3FE049EC50E4C501B4010E942F
:101CB000941F4B015C01C501B4010E94BA086983FD
:101CC0007A838B839C83C701B6010E94BA084B01BB
:101CD0005C0129813A814B815C816D817E818F819C
:101CE00098850E94821E6B017C01A5019401C301AD
:101CF000B2010E94821E9B01AC01C701B6010E9485
:101D0000941F6B017C01F101E256FF4FC082D1822A
:101D1000E282F3822D813E814F815885C501B40155
:101D20000E94821E4B015C0129813A814B815C81BA
:101D3000C301B2010E94821E9B01AC01C501B40126
:101D40000E94951F2B013C01F101EE55FF4F40828F
:101D500051826282738220E030E040E05FE3A98537
:101D6000BA851A966D917D918D919C911D970E94D7
:101D7000821E4B015C01F101EE56FF4FFA83E983AD
:101D8000AC019B01C701B6010E94951FA981BA81D0
:101D90006D937D938D939C93139720E030E040E00A
:101DA0005FEBC701B6010E94821E6B017C0127ED2B
:101DB00033EB4DE55FE3C301B2010E94821E2B01AC
:101DC0003C01F101EA56FF4FFA83E983AC019B0124
:101DD000C701B6010E94951FA50194010E94951F9D
:101DE000A981BA816D937D938D939C931397F10193
:101DF000E656FF4FFA83E983A3019201C701B601BA
:101E00000E94941FA5019401FDCE20E030E0A901BD
:101E1000CB01B2010E941C1E87FF0AC02BED3FE0E0
:101E200049E450E4C701B6010E94951F6B017C0193
:101E300020E030E0A901C301B2010E94552118162B
:101E400024F077FA709477F87094F10120A931A901
:101E500042A953A9C701B6010E94951F2BED3FE08F
:101E600049EC5FE30E94951F0E94CF0C6B017C013F
:101E700022E93AE046E85FE30E9401200E94A9209F
:101E800020E030E040E85FE30E94951F0E9473204D
:101E9000788B6F87072E000C880B990B0E94231EEE
:101EA0004B015C0122E93AE046E85FE30E94821EB2
:101EB000A70196010E94941F0E94BA08A985BA85BD
:101EC0001A962D913D914D915C911D972B873C87E2
:101ED0004D875E8727ED33EB4DED5FE30E94821E59
:101EE000A30192010E94821E2B853C854D855E8553
:101EF0000E94012069837A838B839C8320E030E0F9
:101F000040E85FE3C501B4010E94941F22E93AE072
:101F100046E85FE30E94821E9B01AC01C701B60147
:101F20000E94941F0E94BA0827ED33EB4DED5FE34A
:101F30000E94821EA30192010E94821E2B853C8575
:101F40004D855E850E9401206D837E838F839887F7
:101F500029813A814B815C8160E070E080E89FE3F9
:101F60000E94941F2D813E814F8158850E94941FAD
:101F7000EF85F889E330F10509F4AEC074F4E1307F
:101F8000F105A9F1329709F48AC0C12CD12C760150
:101F900046015701260137014CC02F85388925306D
:101FA000310509F4DBC00CF4BAC02630310569F7FD
:101FB00020E030E040E05FE30E94821E4B015C01C4
:101FC0002D813E814F81588569817A818B819C81E9
:101FD0000E94951FA50194010E94951F2B013C01B1
:101FE00029813A814B815C81C501B40193C020E015
:101FF00030E040E05FE30E94821E6B017C012D8196
:102000003E814F81588569817A818B819C810E94B4
:10201000951FA70196010E94951F2B013C012D8160
:102020003E814F815885C701B6010E94951F4B0123
:102030005C01A1014E565F4F5A8349832B853C8535
:102040004D855E85C301B2010E94821EA981BA81BD
:102050006D937D938D939C931397F101EA56FF4FF7
:10206000FA83E9832B853C854D855E85C501B401E6
:102070000E94821EA981BA816D937D938D939C935A
:102080001397F101E656FF4FFA83E9832B853C85D0
:102090004D855E85C701B6010E94821EB5CD20E048
:1020A00030E040E05FE30E94821E6B017C012981E9
:1020B0003A814B815C810E94951F2B013C012D814F
:1020C0003E814F81588569817A818B819C810E94F4
:1020D000951FA7019601A9CF20E030E040E05FE323
:1020E0000E94821E2B013C012D813E814F8158852B
:1020F00069817A818B819C810E94951FA301920145
:102100000E94951F4B015C01A30192016D817E81AC
:102110008F8198850E94951F6B017C018ACF20E0FA
:1021200030E040E05FE30E94821E2B013C01AC01E5
:102130009B0169817A818B819C810E94951F4B0153
:102140005C012D813E814F81588569817A818B8127
:102150009C810E94951FA3019201DCCF20E030E01A
:1021600040E05FE30E94821E4B015C012D813E81B5
:102170004F8158850E94951F2B013C012D813E8186
:102180004F81588569817A818B819C810E94951F3E
:10219000A5019401BFCF4F925F926F927F928F9271
:1021A0009F92AF92BF92CF92DF92EF92FF920F93E6
:1021B0001F93CF93DF93CDB7DEB766970FB6F89432
:1021C000DEBF0FBECDBF9E8B8D8B6A017B0120E0F1
:1021D00034EE40E456ECCB01B6010E941C1E88236D
:1021E00041F0AD89BE891296CD92DD92ED92FC92BE
:1021F00015978D899E890E9452069B01AC01ED893D
:10220000FE89228733874487558784A995A9823020
:10221000910509F4CEC0E8F4009709F4BFC0019716
:1022200009F400C166960FB6F894DEBF0FBECDBFAD
:10223000DF91CF911F910F91FF90EF90DF90CF90A2
:10224000BF90AF909F908F907F906F905F904F90D6
:1022500008958330910509F404C1049719F7AD89F5
:10226000BE8912962D913D914D915C9115972983D0
:102270003A834B835C83FD01228B338B448B558BDC
:102280000E94D5056D837E838F839887ED89FE89B3
:10229000EA55FF4F80819181A281B3812D813E81DA
:1022A0004F815885281B390B4A0B5B0BCA01B901BA
:1022B0000E94211E2DEB37E346E855E30E94821E63
:1022C00069877A878B879C87AD89BE8916968D91A1
:1022D0009D910D90BC91A02D8D879E87AF87B88B67
:1022E0009C01AD0169817A818B819C810E94941F40
:1022F0004B015C0120E030E0A9010E945521181635
:102300000CF40FC1A50194015058298B3A8B4B8BCB
:102310005C8BAD89BE899C96CD90DD90ED90FC9054
:102320009F97A701960169857A858B859C850E9478
:10233000821E2B013C0120E030E0A9010E945521C2
:10234000181624F077FA709477F87094A30192012C
:1023500069897A898B899C890E94552118160CF00D
:1023600040C120E030E0A901C501B4010E941C1E5B
:1023700087FDDCC020E030E0A901C501B4010E9466
:102380005521812C912C540118160CF0D5C0812CAC
:10239000912C80E8A82E8FE3B82ECEC0ED89FE895F
:1023A00082819381A481B581868B978BA08FB18F19
:1023B00039CFAD89BE8912966D917D918D919C9199
:1023C0001597FD01628B738B848B958B26813781EA
:1023D000408551850E94941FAB01BC018D899E8967
:1023E000845A9F4F0E942907AD89BE891E966D931E
:1023F0007D938D939C9351971A962D913D914D917C
:102400005C911D970E94941FAB01BC018D899E8930
:10241000C8960E942907ED89FE89668B778B808F8D
:10242000918F00CFAD89BE8912966D917D918D916E
:102430009C911597FD0166877787808B918B0E9411
:10244000941FAB01BC018D899E89C8960E94290703
:10245000AD89BE8956966D937D938D939C935997C4
:10246000E1CEED89FE89C280D380E480F580C68606
:10247000D786E08AF18A0E94D5052B013C01AD8800
:10248000BE88B6EAAB0EB11CF50180819181A281B4
:10249000B381A3019201281B390B4A0B5B0BCA01C4
:1024A000B9010E94211E2DEB37E346E855E30E9457
:1024B000821EA70196010E94821EAD89BE891696D2
:1024C0002D913D914D915C9119970E94951F6B0143
:1024D0007C01ED89FE89C682D782E086F18666A1FD
:1024E00077A1072E000C880B990B0E94231EA701D1
:1024F00096010E94821E6B017C01AD89BE8998966F
:102500004D915D916D917C919B9700E010E0980159
:10251000CD010E94F30CF5014082518262827382E8
:1025200081CE898A9A8AAB8ABC8AF3CE812C912C7F
:1025300090E8A92E9FEBB92E20E030E0A901C70159
:10254000B6010E945521181624F0F7FAF094F7F816
:10255000F094A7019601C501B4010E94821E29854D
:102560003A854B855C850E94821E2D853E854F8570
:1025700058890E94951FED89FE896683778380873D
:102580009187ED89FE8966A177A1072E000C880B43
:10259000990B0E94231EAD89BE8916962D913D91FF
:1025A0004D915C9119970E94821E6B017C01ED890F
:1025B000FE8940A551A562A573A500E010E0980131
:1025C000CF010E94F30C2D893E892A553F4FF90116
:1025D0008D819E81AF81B88580839183A283B383EF
:1025E00021CE29813A814B815C81AD89BE891696C5
:1025F0002D933D934D935C931997C3CFCF92DF9268
:10260000EF92FF920F931F93CF93DF93EC010E9401
:10261000C0056B017C01CE82DF82E886F9866EA15F
:102620007FA1072E000C880B990B0E94231EA70187
:1026300096010E94821E6B017C010A8D1B8D2C8DE0
:102640003D8D4E895F89688D798DCE010E94F30C96
:10265000DF91CF911F910F91FF90EF90DF90CF907E
:1026600008952F923F924F925F926F927F928F9236
:102670009F92AF92BF92CF92DF92EF92FF920F9311
:102680001F93CF93DF9300D000D0CDB7DEB79C83EC
:102690008B834A015B01890120E034EE40E456EC73
:1026A000CB01B4010E941C1E2B813C8122573F4F5D
:1026B0001901882389F1AB81BC81D0968D929D92BE
:1026C000AD92BC92D397A457BF4FED91FC91138369
:1026D000028301E010E0F10180819181009721F0F7
:1026E00062E574E00E947D0AC8010F900F900F9080
:1026F0000F90DF91CF911F910F91FF90EF90DF909E
:10270000CF90BF90AF909F908F907F906F905F9091
:102710004F903F902F90089564EF71E080E090E03B
:102720000E940107F10180819181009721F068E901
:1027300073E00E947D0A8B819C810E94C0054B0141
:102740005C01712C612CB301072C000C880B990BD8
:102750000E94231E2BED3FE049EC50E40E94821EB4
:1027600020E030E040EC50E40E94012024EE3BECFD
:1027700046E950E40E94951F6B017C01AB81BC814E
:102780005E964D915D916D917C91919700E010E086
:102790009801CD010E94F30C68EC70E080E090E0BD
:1027A0000E940107BFEF6B1A7B0AE6E06E16710408
:1027B00051F68B819C810E94C0052B013C0125E0D4
:1027C00030E03A832983A981BA81BD01BB0F880B10
:1027D000990B0E94231E2BED3FE049EC50E40E9430
:1027E000821E20E030E040EC50E40E94012024EE04
:1027F0003BEC46E950E40E94951F6B017C01EB81A4
:10280000FC81468D578D60A171A100E010E0980118
:10281000CF010E94F30C68EC70E080E090E00E9431
:10282000010729813A81215031093A8329832F3FB9
:102830003F4F49F6A3019201C501B4010E94552101
:10284000AB81BC81A457BF4FBA83A98318160CF083
:10285000F8C0F10180819181009721F06BEA73E06B
:102860000E947D0AA981BA81ED91FC918FEF9FEFC3
:102870009383828360ED77E080E090E00E9401071F
:10288000A981BA818D919C91DC01ED91FC9104802C
:10289000F581E02D099564EF71E080E090E00E9401
:1028A0000107C12CD12C760197018601B701A60141
:1028B0008B819C810E94F30C68EC70E080E090E0DA
:1028C0000E940107F10180819181009721F06DEE56
:1028D00073E00E947D0AA981BA818D919C91DC01EF
:1028E000ED91FC910084F185E02D09958C01892BF7
:1028F00009F48DC0F10180819181892BA1F0A9811A
:10290000BA818D919C91DC01ED91FC910284F3855B
:10291000E02D0995892B39F067E074E0F1018081A1
:1029200091810E947D0A0B811C81085C1F4FA98147
:10293000BA818D919C91DC01ED91FC910284F3852B
:10294000E02D0995892B71F02BED3FE049EC50E427
:10295000EB81FC8166817781808591850E941C1EB8
:1029600087FD82C0AB81BC8156961D921D921D923F
:102970001C925997C12CD12C760197018601B70181
:10298000A601CD010E94F30CE981FA818081918139
:10299000DC01ED91FC910284F385E02D0995892BF2
:1029A00029F5E981FA8180819181DC01ED91FC9129
:1029B0000680F781E02D09954B015C01EB81FC81DC
:1029C00066A177A1072E000C880B990B0E94231E8D
:1029D000A50194010E94821E0E94CF0CAB81BC8194
:1029E000D0966D937D938D939C93D397E981FA81D3
:1029F00080819181DC01ED91FC910284F385E02DD1
:102A0000099501E010E0892B11F00FEF1FEF64EF43
:102A100071E080E090E00E940107F10180819181E6
:102A2000009709F450C00F3F100709F044C069E156
:102A300074E00E947D0A6EE374E0D1018D919C9157
:102A400040C0A3019201C501B4010E941C1E811166
:102A500011CFF10180819181009709F40BCF67ECD0
:102A600073E00E947D0A06CFAB81BC81ED91FC91A1
:102A700011970084F185E02DCD010995EB81FC8152
:102A800082A093A0A4A0B5A0CF010E9452069B01F2
:102A9000AC01C501B4010E94941FAB01BC01C80187
:102AA0000E942907AB81BC8156966D937D938D93CF
:102AB0009C9359973CCF60E374E00130110509F015
:102AC000BACF0E947D0A64EF71E080E090E00E943E
:102AD000010701CE8F929F92AF92BF92CF92DF9269
:102AE000EF92FF921F93CF93DF9300D0CDB7DEB765
:102AF0008091960481112BC01092600510925F05A1
:102B0000109262051092610510926405109263059F
:102B100090E080E00E94F80920915F053091600507
:102B20008111C2C02115310519F0C9010E9423226B
:102B30001092600510925F05109264051092630573
:102B4000109262051092610581E08093960485E6FB
:102B500095E00E942401892B09F435C161E08AE0E7
:102B60000E94D30185E695E00E940201182F898317
:102B70001A82E0906305F09064058FEFE81AF80A76
:102B8000C7010E94F809882399F020915F053091D0
:102B900060058091630590916405BE016F5F7F4F72
:102BA000820F931F0E947723F0926405E0926305E1
:102BB0001A3069F680915F0590916005009709F4DD
:102BC0007DC00E94A71C20E030E044E353E40E9453
:102BD00001202AED3FE049E450E40E94821E609308
:102BE0005B0570935C0580935D0590935E0564E6DC
:102BF00074E085E695E00E94280AC0905B05D090BD
:102C00005C05E0905D05F0905E05A7019601C701A7
:102C1000B6010E945A2163E774E081111AC046018F
:102C20005701E894B7F82FEF3FEF4FE75FE7C50193
:102C3000B4010E945A21811145C02FEF3FEF4FE7A9
:102C40005FE7C501B4010E941C1E1816DCF567E79A
:102C500074E085E695E00E94280A66E673E085E662
:102C600095E00E94280A90E080E00E94F8092091F7
:102C70005F053091600581119CC02115310519F067
:102C8000C9010E9423221092600510925F051092E4
:102C9000640510926305109262051092610560E070
:102CA0008AE00E94D30153CF10926405109263050D
:102CB00068E673E0C9010E94772346CF60E070E0C8
:102CC000CB0181CF2FEF3FEF4FE75FE4C701B601A4
:102CD0000E94552118161CF46BE774E0BACF2FEF51
:102CE0003FEF4FE75FECC701B6010E941C1E87FD56
:102CF000F3CF20E030E0A901C701B6010E941C1EFD
:102D000087FF09C06DE285E695E00E946601F7FA4B
:102D1000F094F7F8F0942AE037ED43EA5BE3C7015B
:102D2000B6010E94951F4B015C010E947A206B0145
:102D30007C010E94211E9B01AC01C501B4010E94CF
:102D4000941F4B015C014AE0C701B6010E94370A9B
:102D50006EE285E695E00E94660120E030E040E208
:102D600051E4C501B4010E94821E4B015C010E9426
:102D70007A206B01F12CE12C4AE0C701B6010E94D8
:102D8000370AC701B6010E94211E9B01AC01C50193
:102D9000B4010E94941F20E030E040E251E40E9420
:102DA000821E0E947A2090E080E04AE00E94370A6A
:102DB00054CF109264051092630568E673E0C90170
:102DC0000E9477236CCF0F900F90DF91CF911F91CE
:102DD000FF90EF90DF90CF90BF90AF909F908F903B
:102DE00008951F920F920FB60F9211242F933F93C5
:102DF0004F935F936F937F938F939F93AF93BF9303
:102E0000EF93FF9385E695E00E944401FF91EF91D7
:102E1000BF91AF919F918F917F916F915F914F91F2
:102E20003F912F910F900FBE0F901F9018951F92FA
:102E30000F920FB60F9211242F938F939F93EF93BE
:102E4000FF93E0917505F09176058081E0917B0517
:102E5000F0917C0582FD1BC0908180917E058F5F83
:102E60008F7320917F05821741F0E0917E05F0E09D
:102E7000EB59FA4F958F80937E05FF91EF919F91CB
:102E80008F912F910F900FBE0F901F9018958081FA
:102E9000F4CF1F920F920FB60F9211242F933F93EE
:102EA0008F939F93AF93BF9380914805909149056D
:102EB000A0914A05B0914B053091470523E0230FBF
:102EC0002D3758F50196A11DB11D2093470580931C
:102ED000480590934905A0934A05B0934B0580910E
:102EE0004C0590914D05A0914E05B0914F0501966E
:102EF000A11DB11D80934C0590934D05A0934E05E7
:102F0000B0934F05BF91AF919F918F913F912F91BA
:102F10000F900FBE0F901F90189526E8230F029672
:102F2000A11DB11DD2CF1F920F920FB60F92112487
:102F30002F933F934F935F936F937F938F939F93C1
:102F4000AF93BF93EF93FF93E0910201F0910301E0
:102F50000995FF91EF91BF91AF919F918F917F91D3
:102F60006F915F914F913F912F910F900FBE0F90F6
:102F70001F9018951F920F920FB60F9211242F9346
:102F80003F934F935F936F937F938F939F93AF93F1
:102F9000BF93EF93FF93E0910001F0910101099538
:102FA000FF91EF91BF91AF919F918F917F916F9121
:102FB0005F914F913F912F910F900FBE0F901F90F7
:102FC00018951F920F920FB60F9211242F933F93D3
:102FD0004F935F936F937F938F939F93AF93BF9321
:102FE000EF93FF938091B900887F803609F44AC03F
:102FF000F0F5883209F4A7C018F5803109F49BC0B8
:10300000B8F4882309F4F9C0883009F494C0FF911A
:10301000EF91BF91AF919F918F917F916F915F9150
:103020004F913F912F910F900FBE0F901F901895C9
:10303000883109F488C0803251F78093230514C089
:10304000803409F49DC040F48033B9F38833F9F635
:103050008093230585ECB0C0803509F485C08835A0
:1030600009F496C0883499F60E94A102D0CF88391D
:1030700009F48CC038F5883729F050F4883611F0FF
:10308000803729F683E0809356051092220557C0B9
:10309000883809F47BC0803919F0803809F0B7CF3F
:1030A00080912205803208F071C0E091220581E014
:1030B0008E0F809322058091BB00F0E0EE5FFA4F07
:1030C00080833DC0803B39F0E0F4803A09F479C058
:1030D000883A09F09CCF84E0809356051092010550
:1030E00010920005E0915205F091530509958091E9
:1030F000000581110FC081E0809300051092E0046B
:1031000009C0803C09F4A6CF883C09F4A3CF883BD2
:1031100009F07DCFE091010581E08E0F80930105DC
:10312000F0E0E052FB4F80818093BB00909101055D
:103130008091000529C0809146058093BB0085ECF5
:103140008093BC0064CF9091450580914405981709
:1031500058F5E091450581E08E0F80934505F0E03C
:10316000EC5DFA4F8081E9CFE091450581E08E0F5B
:10317000809345058091BB00F0E0EC5DFA4F8083C1
:1031800090914505809144059817C8F285E8D8CFFD
:10319000E091450581E08E0F809345058091BB004D
:1031A000F0E0EC5DFA4F80838091550581115CCF92
:1031B00081E08093540584EA8093BC001092560508
:1031C00026CF85EC8093BC00109256058091220595
:1031D000803230F4E0912205F0E0EE5FFA4F108289
:1031E0006091220570E0E0915005F091510582E078
:1031F00095E00995109222050ACF1092230534CF4D
:103200008F929F92AF92BF92CF92DF92EF92FF92F6
:10321000CF93DF93E5E6F5E01382128248EE53E0A8
:1032200060E070E044835583668377838AE093E0AF
:103230009183808385EC90E09587848784EC90E08F
:103240009787868780EC90E0918B808B81EC90E073
:10325000938B828B82EC90E0958B848B86EC90E054
:10326000978B868B118E128E138E148EA2E0B6E091
:1032700013961C921E92129714964D935D936D9324
:103280007C9317978CE193E011969C938E93EEECD0
:10329000F6E081E090E0938382838AE593E0918376
:1032A000808386E385878EE0848740E050E060E895
:1032B00075E4448355836683778388E090E0918743
:1032C00080878FEF82878FE18387B1A3A0A3C4E2B9
:1032D000D6E08AE393E09983888380E090E0A0E0E1
:1032E000BFE388AF99AFAAAFBBAF80E090E0A0E2A8
:1032F000B1E48CAF9DAFAEAFBFAF10926406109239
:103300006506109266061092670680E090E0AAE7D4
:10331000B4E48093680690936906A0936A06B0931C
:103320006B06C12CD12C80E4E82E81E4F82EC092EB
:103330006C06D0926D06E0926E06F0926F061092C7
:103340007006109271061092720610927306109217
:1033500074061092750610927606109277061092F7
:103360007C0610927D0610927E0610927F060E94C7
:10337000D5050E94211E2DEB37E346E855E30E9458
:10338000821E609378067093790680937A069093F4
:103390007B06812C912C90EAA92E91E4B92E809283
:1033A000800690928106A0928206B09283061092C7
:1033B0008406109285061092860610928706109257
:1033C00088061092890610928A0610928B0689EF61
:1033D00092E0A5E1B0E580938C0690938D06A093D2
:1033E0008E06B0938F068092900690929106A092DE
:1033F0009206B0929306109294061092950610923F
:1034000096061092970610929806109299061092BE
:103410009A0610929B061092A0061092A106109296
:10342000A2061092A3060E94D5050E94211E2DEB34
:1034300037E346E855E30E94821E60939C06709332
:103440009D0680939E0690939F068AE097EDA3EADF
:10345000BBE38093A4069093A506A093A606B09321
:10346000A7061092AC061092AD061092AE0610920E
:10347000AF060E94D5056093A8067093A9068093B5
:10348000AA069093AB068CA69DA6AEA6BFA6C8A61C
:10349000D9A6EAA6FBA680E090E0A0E8BFE38AA355
:1034A0009BA3ACA3BDA380E090E0A0ECB0E48E8F22
:1034B0009F8FA8A3B9A318AA19AA1AAA1BAA1FAA60
:1034C0001EAA1A821B821C821D821A8E1B8E1C8EC3
:1034D0001D8E1E8A1F8A188E198E1092B3061092A6
:1034E000B2061092B1061092B0068AE493E0998376
:1034F000888387E090E09FA38EA3EEE0F6E02EE2C3
:1035000033E03183208323E030E03787268725E0CE
:1035100030E0318B208B26E030E0338B228B958B93
:10352000848BC682D782E086F18680E094EEA0E4A8
:10353000B6EC82879387A487B587DF91CF91FF9000
:10354000EF90DF90CF90BF90AF909F908F900895B5
:10355000789484B5826084BD84B5816084BD85B56E
:10356000826085BD85B5816085BD80916E0081607A
:1035700080936E0010928100809181008260809320
:103580008100809181008160809381008091800022
:103590008160809380008091B10084608093B1004D
:1035A0008091B00081608093B00080917A00846047
:1035B00080937A0080917A00826080937A00809173
:1035C0007A00816080937A0080917A00806880938D
:1035D0007A001092C10085B5887F816085BD809199
:1035E0008100887F816080938100E0917505F09172
:1035F000760582E08083E0917105F091720510827A
:10360000E0917305F091740580E1808310927D054F
:10361000E0917905F0917A0586E08083E091770565
:10362000F0917805808180618083E0917705F09149
:103630007805808188608083E0917705F091780536
:10364000808180688083E0917705F09178058081A2
:103650008F7D80838AE00E94A50082E096E09093AF
:10366000EF068093EE0610925A05109259051092BB
:103670005805109257051092560581E08093550524
:103680001092540561E082E10E94D30161E083E180
:103690000E94D3018091B9008E7F8093B900809100
:1036A000B9008D7F8093B90088E48093B80085E4E9
:1036B0008093BC0084EC90E0909353058093520576
:1036C00085EC90E090935105809350051092E606AA
:1036D0001092E7061092E8061092E9060E94D505BE
:1036E0006093EA067093EB068093EC069093ED06E8
:1036F0001092DE061092DF061092E0061092E106AC
:103700006091DA068EEC96E00E94040BBC01990FE2
:10371000880B990B0E94231E6093E2067093E306C8
:103720008093E4069093E5061092DD061092DC0685
:103730008EEC96E09093B1068093B00680E090E026
:10374000A0E0B1E48093140690931506A0931606AA
:10375000B09317068EE096E00E94F0048EE096E0AB
:103760009093B5068093B40680E090E0A0E4B0E4C6
:103770008093420690934306A0934406B093450677
:1037800081E090E090935B0680935A0682E090E09F
:1037900090935906809358068AE999E9A9E9BEE30E
:1037A00080935C0690935D06A0935E06B0935F06DF
:1037B00080E090E0A0E8BFE380936006909361060C
:1037C000A0936206B09363068FE692E1A3E8BAE3A2
:1037D0008093640690936506A0936606B09367068F
:1037E0008AE097EDA3EABCE38093A4069093A50634
:1037F000A093A606B093A70680E090E0A0EAB1E40B
:103800008093800690938106A0938206B0938306EE
:1038100080E090E0A0E8B0E48093500690935106D9
:10382000A0935206B093530685E695E09093B306B5
:103830008093B2066FE774E00E947D0A84E296E00E
:103840000E94910A21E030E040E054EE60E476EC22
:1038500084E296E00E943113C3E0D0E061E08AE0A8
:103860000E94D30168EC70E080E090E00E940107C4
:1038700060E08AE00E94D30164E670E080E090E0BE
:103880000E940107219751F78EEC96E00E94D90B18
:1038900060935B0570935C0580935D0590935E0576
:1038A000D0E0C0E0BE010D2E000C880B990B0E94E9
:1038B000231E2DEC3CEC4CEC5BE30E94821E6093DB
:1038C0004C0670934D0680934E0690934F0684E20B
:1038D00096E00E94FE1240915B0550915C0560915C
:1038E0005D0570915E0584E296E00E94CB100E9417
:1038F0006A152196C13283E0D807A1F680E090E0F6
:10390000A0EAB0E480934C0690934D06A0934E0637
:10391000B0934F06C0E0D0E084E296E00E94FE1231
:1039200040915B0550915C0560915D0570915E056D
:1039300084E296E00E94CB100E946A15209761F302
:103940000E943001882341F30E940000E5CF6627E2
:1039500077270C94AB1CB0E0A0E0E1EBFCE10C9409
:10396000541F5C017B016115710519F0DB018D931A
:103970009C9385010F5F1F4FF501D0818D2F90E043
:103980000E94FB1D6C01892BB9F5DD32B9F50F5F83
:103990001F4FD5011196DC91C1E05801F1E0AF1A3B
:1039A000B10843E050E060E770E0C5010E94041EEA
:1039B000892B69F5680182E0C80ED11C45E050E012
:1039C0006BE670E0C6010E94041E892B21F4680199
:1039D00097E0C90ED11CE114F10419F0D701CD9282
:1039E000DC9260E070E080E89FEFC111FFC060E012
:1039F00070E080E89FE7FAC05801BBCFDB3229F4C2
:103A000085010E5F1F4FF501D181C0E0C6CF43E0B5
:103A100050E068E670E0C5010E94041E892BE9F0C1
:103A2000F80110E000E020E030E0A9015F01B0ED16
:103A30008B2E8D0E89E08815C8F19C2E689491F824
:103A40008C2F8870C2FF16C0811102C00F5F1F4FFC
:103A50003196D501DC91C92DE9CFE114F10429F0AB
:103A60000E5F1F4FF7011183008360E070E080EC70
:103A70009FE7BCC0882311F001501109A5E0B0E018
:103A80000E94431F9B01AC01220F331F441F551F8F
:103A9000280D311D411D511D283999E93907490764
:103AA00099E15907A8F2C6609C2ED2CFAEEF8A12D8
:103AB00006C0C3FD3CC09C2E689493F8C9CFDF7D3F
:103AC000D534A9F580818D3239F4C061DF011296B9
:103AD000818162E070E006C0DF018B32C1F3119694
:103AE00061E070E080535D01A61AB70A8A30F8F4ED
:103AF000E0E8CE16ECE0DE065CF4B601660F771F58
:103B0000660F771FC60ED71ECC0CDD1CC80ED11C4D
:103B10005D01FFEFAF1ABF0A8C9180538A30A8F184
:103B2000C4FF03C0D194C194D1080C0D1D1DC1FF69
:103B300009C0E114F10431F081E0A81AB108D701FD
:103B4000AD92BC92CA01B9010E94211EC370C3305C
:103B500009F490584B015C0120E030E0A9010E947B
:103B60001C1E882309F440C0CFE9D0E017FF05C030
:103B7000119501951109C7E8D0E06E01B8E1CB1AA3
:103B8000D10880E2E82EF12C0FC0D501B1CFFE01A3
:103B900025913591459154910E191F09C501B40124
:103BA0000E94821E4B015C01D501C4010E151F0548
:103BB00074F72497F594E794CC16DD06A9F78A2FBD
:103BC000880F8B2F881F8F3F49F020E030E0A9013C
:103BD000C501B4010E941C1E811106C082E290E062
:103BE0009093F1068093F006C501B401CDB7DEB71E
:103BF000ECE00C94701F91110C94EF1E803219F0C0
:103C000089508550C8F70895FB01DC0141505040B0
:103C100088F08D9181341CF08B350CF4805E6591B9
:103C200061341CF06B350CF4605E861B611171F31E
:103C3000990B0895881BFCCF0E945E1E08F481E05A
:103C40000895E89409C097FB3EF49095809570958F
:103C500061957F4F8F4F9F4F9923A9F0F92F96E9D8
:103C6000BB279395F695879577956795B795F1114D
:103C7000F8CFFAF4BB0F11F460FF1BC06F5F7F4FEA
:103C80008F4F9F4F16C0882311F096E911C07723FC
:103C900021F09EE8872F762F05C0662371F096E805
:103CA000862F70E060E02AF09A95660F771F881FD4
:103CB000DAF7880F9695879597F90895990F000878
:103CC000550FAA0BE0E8FEEF16161706E807F907EE
:103CD000C0F012161306E407F50798F0621B730B89
:103CE000840B950B39F40A2661F0232B242B252B0A
:103CF00021F408950A2609F4A140A6958FEF811DAD
:103D0000811D08950E94951E0C94091F0E94FB1EA0
:103D100038F00E94021F20F0952311F00C94F21E3F
:103D20000C94F81E11240C943D1F0E941A1F70F36E
:103D3000959FC1F3950F50E0551F629FF001729F50
:103D4000BB27F00DB11D639FAA27F00DB11DAA1F5F
:103D5000649F6627B00DA11D661F829F2227B00DAC
:103D6000A11D621F739FB00DA11D621F839FA00D37
:103D7000611D221F749F3327A00D611D231F849F87
:103D8000600D211D822F762F6A2F11249F575040DE
:103D90009AF0F1F088234AF0EE0FFF1FBB1F661F59
:103DA000771F881F91505040A9F79E3F510580F022
:103DB0000C94F21E0C943D1F5F3FE4F3983ED4F345
:103DC000869577956795B795F795E7959F5FC1F7C6
:103DD000FE2B880F911D9695879597F90895992741
:103DE0008827089597F99F6780E870E060E008955C
:103DF0009FEF80EC089500240A9416161706180603
:103E00000906089500240A941216130614060506DE
:103E10000895092E0394000C11F4882352F0BB0F6F
:103E200040F4BF2B11F460FF04C06F5F7F4F8F4FD2
:103E30009F4F089557FD9058440F551F59F05F3F0D
:103E400071F04795880F97FB991F61F09F3F79F0BC
:103E500087950895121613061406551FF2CF46953E
:103E6000F1DF08C0161617061806991FF1CF8695C0
:103E70007105610508940895E894BB2766277727A4
:103E8000CB0197F908950E94851FA59F900DB49FBF
:103E9000900DA49F800D911D112408952F923F92A3
:103EA0004F925F926F927F928F929F92AF92BF924A
:103EB000CF92DF92EF92FF920F931F93CF93DF93F6
:103EC000CDB7DEB7CA1BDB0B0FB6F894DEBF0FBE53
:103ED000CDBF09942A88398848885F846E847D84A0
:103EE0008C849B84AA84B984C884DF80EE80FD80A2
:103EF0000C811B81AA81B981CE0FD11D0FB6F89418
:103F0000DEBF0FBECDBFED010895A29FB001B39FEC
:103F1000C001A39F700D811D1124911DB29F700DD2
:103F2000811D1124911D08955058BB27AA270E9476
:103F3000AC1F0C94091F0E94FB1E38F00E94021F48
:103F400020F039F49F3F19F426F40C94F81E0EF477
:103F5000E095E7FB0C94F21EE92F0E941A1F58F31C
:103F6000BA17620773078407950720F079F4A6F55E
:103F70000C943C1F0EF4E0950B2EBA2FA02D0B01D4
:103F8000B90190010C01CA01A0011124FF27591B9E
:103F900099F0593F50F4503E68F11A16F040A22FA4
:103FA000232F342F4427585FF3CF46953795279515
:103FB000A795F0405395C9F77EF41F16BA0B620B14
:103FC000730B840BBAF09150A1F0FF0FBB1F661F5B
:103FD000771F881FC2F70EC0BA0F621F731F841F9E
:103FE00048F4879577956795B795F7959E3F08F0C4
:103FF000B0CF9395880F08F09927EE0F9795879586
:1040000008950E9415200C94091F0E94021F58F069
:104010000E94FB1E40F029F45F3F29F00C94F21E31
:1040200051110C943D1F0C94F81E0E941A1F68F346
:104030009923B1F3552391F3951B550BBB27AA2761
:1040400062177307840738F09F5F5F4F220F331F9B
:10405000441FAA1FA9F335D00E2E3AF0E0E832D063
:1040600091505040E695001CCAF72BD0FE2F29D066
:10407000660F771F881FBB1F261737074807AB0738
:10408000B0E809F0BB0B802DBF01FF2793585F4FAD
:104090003AF09E3F510578F00C94F21E0C943D1FAF
:1040A0005F3FE4F3983ED4F3869577956795B7958F
:1040B000F7959F5FC9F7880F911D9695879597F99A
:1040C0000895E1E0660F771F881FBB1F6217730713
:1040D0008407BA0720F0621B730B840BBA0BEE1F28
:1040E00088F7E09508950E947A206894B1110C94A5
:1040F0003D1F08950E94221F88F09F5798F0B92F06
:104100009927B751B0F0E1F0660F771F881F991F0C
:104110001AF0BA95C9F714C0B13091F00E943C1F53
:10412000B1E008950C943C1F672F782F8827B85F63
:1041300039F0B93FCCF3869577956795B395D9F764
:104140003EF490958095709561957F4F8F4F9F4F6E
:1041500008950E943D2190F09F3748F4911116F088
:104160000C943D1F60E070E080E89FEB089526F41A
:104170001B16611D711D811D0C9414210C942F219F
:104180000E94FB1E20F019F00E94021F50F40C94B4
:10419000F81E0C943D1FE92F0E941A1F88F3552327
:1041A000B1F3E7FB6217730784079507A8F189F35A
:1041B000E92FFF2788232AF03197660F771F881F82
:1041C000DAF7952F5527442332F091505040220FB3
:1041D000331F441FD2F7BB27E91BF50B621B730B80
:1041E000840BB109B1F222F4620F731F841FB11D59
:1041F00031972AF0660F771F881FBB1FEFCF9150B2
:10420000504062F041F0882332F0660F771F881F1C
:1042100091505040C1F793950C942F218695779536
:1042200067959F5FD9F7F7CF882371F4772321F043
:104230009850872B762F07C0662311F499270DC05D
:104240009051862B70E060E02AF09A95660F771FF8
:10425000881FDAF7880F9695879597F908959F3FFD
:1042600031F0915020F4879577956795B795880F31
:10427000911D9695879597F908950E94221FA0F0A9
:10428000BEE7B91788F4BB279F3860F41616B11D36
:10429000672F782F8827985FF7CF86957795679552
:1042A000B11D93959639C8F308950E945E1E08F4D7
:1042B0008FEF08950E945E1E880B990B0895A1E26E
:1042C0001A2EAA1BBB1BFD010DC0AA1FBB1FEE1F90
:1042D000FF1FA217B307E407F50720F0A21BB30BDB
:1042E000E40BF50B661F771F881F991F1A9469F757
:1042F00060957095809590959B01AC01BD01CF01B3
:104300000895EE0FFF1F0590F491E02D09940F938F
:104310001F93CF93DF938230910510F482E090E0F9
:10432000E091F406F091F50630E020E0B0E0A0E086
:10433000309799F42115310509F44AC0281B390B2F
:1043400024303105D8F58A819B816115710589F189
:10435000FB0193838283FE0111C040815181028160
:10436000138148175907E0F04817590799F4109737
:1043700061F012960C93129713961C933296CF010C
:10438000DF91CF911F910F9108950093F406109340
:10439000F506F4CF2115310551F04217530738F0D7
:1043A000A901DB019A01BD01DF01F801C1CFEF01D5
:1043B000F9CF9093F5068093F406CDCFFE01E20F7E
:1043C000F31F819391932250310939832883D7CFEA
:1043D0002091F2063091F306232B41F4209106013F
:1043E000309107013093F3062093F20620910401E7
:1043F000309105012115310541F42DB73EB74091AB
:10440000080150910901241B350BE091F206F0914F
:10441000F306E217F307A0F42E1B3F0B281739070A
:1044200078F0AC014E5F5F4F2417350748F04E0F10
:104430005F1F5093F3064093F206819391939FCFB1
:10444000F0E0E0E09CCFCF93DF930097E9F0FC0130
:10445000329713821282A091F406B091F506ED0115
:1044600030E020E01097A1F420813181820F931F6A
:104470002091F2063091F3062817390709F061C040
:10448000F093F306E093F206DF91CF910895EA01ED
:10449000CE17DF07E8F54A815B819E014115510582
:1044A000B1F7E901FB83EA8349915991C40FD51F04
:1044B000EC17FD0761F4808191810296840F951FAE
:1044C000E90199838883828193819B838A83F0E0C9
:1044D000E0E012968D919C9113970097B9F52D917C
:1044E0003C911197CD010296820F931F2091F20605
:1044F0003091F3062817390739F6309751F51092A5
:10450000F5061092F406B093F306A093F206BCCF22
:10451000D383C28340815181840F951FC817D90767
:1045200061F44E5F5F4F88819981480F591F518315
:1045300040838A819B81938382832115310509F011
:10454000B0CFF093F506E093F4069ECFFD01DC01B9
:10455000C0CF13821282D7CFB0E0A0E0E2EBF2E24C
:104560000C94501F8C01009751F4CB010E948721BD
:104570008C01C801CDB7DEB7E0E10C946C1FFC01E3
:10458000E60FF71F9C0122503109E217F30708F4E8
:104590009DC0D901CD91DC911197C617D70798F02E
:1045A000C530D10530F3CE0104978617970708F37D
:1045B000C61BD70B2297C193D1936D937C93CF01E8
:1045C0000E942322D6CF5B01AC1ABD0A4C018C0E8F
:1045D0009D1EA091F406B091F506512C412CF12CB2
:1045E000E12C109731F58091F2069091F306881531
:1045F000990509F05CC04616570608F058C080912E
:10460000040190910501009741F48DB79EB7409148
:10461000080150910901841B950BE817F90708F070
:1046200055C0F093F306E093F206F90171836083BD
:10463000A0CF8D919C91119712966C901297139622
:104640007C901397A815B90559F56C0142E0C40E8A
:10465000D11CCA14DB0420F1AC014A195B09DA0150
:104660001296159780F06282738251834083D9013C
:104670006D937C93E114F10471F0D7011396FC93D0
:10468000EE93129776CF22968C0F9D1FF90191839E
:104690008083F301EFCFF093F506E093F40669CF42
:1046A0004816590608F42C017D01D3019ACFCB019D
:1046B0000E9487217C01009749F0AE01B8010E9459
:1046C0006E23C8010E942322870153CF10E000E02F
:1046D00050CF81E090E0F8940C947E23FB01DC0144
:1046E00002C001900D9241505040D8F70895FB014F
:1046F000DC0101900D920020E1F70895F894FFCFBE
:10470000A002A0020000F606800000000100FFFFEA
:10471000FFFF0100FFFFFFFF01000000FFFF01009E
:104720000100FFFF00000100FFFFFFFF010000008C
:10473000FFFF01000100FFFF01000100FFFF00007B
:104740000100FFFFFFFF01000000FFFF010001006B
:10475000FFFF00000100FFFFFFFF01000000FFFF5F
:10476000000001000000FFFF01000100FFFF00004A
:1047700001000000FFFF00004F009E00ED003C0123
:104780008B01D90128027702C60215036303B20325
:1047900000044F049D04EC043A058805D605240660
:1047A0007206C0060E075B07A907F60743089008C4
:1047B000DD082A097709C3090F0A5C0AA80AF40A66
:1047C0003F0B8B0BD60B210C6C0CB70C010D4C0D59
:1047D000960DE00D290E730EBC0E050F4E0F960FB1
:1047E000DF0F27106E10B610FD1044118B11D11180
:1047F00017125D12A212E8122D137113B613F913DA
:104800003D148114C414061549158B15CC150E16CC
:104810004F168F16CF160F174F178E17CD170B1871
:1048200049188718C41801193D197919B519F019D3
:104830002B1A661A9F1AD91A121B4B1B831BBB1B00
:10484000F21B291C601C961CCB1C001D351D691D0C
:104850009D1DD01D031E351E671E981EC91EFA1E03
:10486000291F591F881FB61FE41F11203E206A20F0
:104870009620C120EC201621402169219221BA21E5
:10488000E12108222F2255227A229F22C322E722E9
:104890000A232D234F2370239123B223D123F12305
:1048A0000F242D244B2468248424A024BB24D52445
:1048B000EF24092522253A25522569257F259525AE
:1048C000AA25BF25D325E625F9250B261D262E264C
:1048D0003E264E265D266C267A2687269426A0261E
:1048E000AB26B626C026CA26D326DB26E326EA2632
:1048F000F126F726FC260127052708270B270D2779
:104900000F2710271027000000006601C600F300E3
:10491000B301240102011601000000002903FC027A
:104920005803D202F502E202D30200000000F004B4
:104930008C055005A90300000000260A260A260A55
:10494000260A260A260A00000000910ACC099F09BF
:104950003113FE12CB1000000000D90BE5059E0CB0
:1049600061035E035B030D0A004D4F543A20496E0C
:10497000697469616C697365207661726961626CE2
:1049800065732E004D4F543A20456E61626C652070
:104990006472697665722E004D4F543A20416C69FD
:1049A000676E2073656E736F722E004D4F543A2000
:1049B0006E61747572616C5F646972656374696F4E
:1049C0006E3D3D434357004D4F543A2053656E733F
:1049D0006F72206661696C656420746F206E6F74FD
:1049E000696365206D6F76656D656E74004D4F541B
:1049F0003A204162736F6C757465207A65726F201E
:104A0000616C69676E2E004D4F543A205365617298
:104A10006368696E672E2E2E004D4F543A20457202
:104A2000726F723A204E6F7420666F756E6421004B
:104A30004D4F543A205375636365737321004D4F96
:104A4000543A204E6F7420617661696C61626C65C6
:104A500021004D4F543A204D6F746F722072656182
:104A600064792E0054617267657420616E676C65AD
:104A70003A20006E616E00696E66006F7666004DCA
:104A80004F543A204D6F6E69746F7220656E61628B
:064A90006C6564210000CA
:00000001FF
